:1000000039C00000AAC00000E3C000001FC100000A
:1000100041C000003FC000003DC000003BC00000E8
:1000200039C0000037C0000035C0000033C00000F8
:1000300031C000002FC000002DC000002BC0000008
:1000400029C0000027C0000025C0000023C0000018
:1000500021C0000057005A005D0060006300660088
:1000600069006C006F007200750078007B007E00F4
:100070008100840011241FBECFE5D4E0DEBFCDBFD8
:1000800020E0A0E6B0E001C01D92A137B207E1F781
:1000900069D18EC1B5CF082E000C990BAA0BBB0BF2
:1000A00080319105A0F5FC01E65DFF4F7BC18FE536
:1000B00085BB089586E085BB08958BE385BB0895D5
:1000C0008FE285BB089586E685BB08958DE685BBE6
:1000D00008958DE785BB089587E085BB08958FE778
:1000E00085BB08958FE685BB089587E785BB089596
:1000F0008DE785BB089589E585BB08958EE385BBB3
:10010000089589E785BB089581E785BB089515BAF1
:100110000895EFE6F0E047E650E032979C012F703B
:100120003078332334F421503109206F3F6F2F5F33
:100130003F4F318320839C01992314F4215F3F4F6B
:10014000C9019595879595958795959587959595E9
:100150008795E417F50709F708951F920F920FB6D8
:100160000F9211242F933F934F935F936F937F933D
:100170008F939F93AF93BF93EF93FF93809165000D
:10018000811115C080916F0090917000019690933D
:10019000700080936F0080916F009091700080914B
:1001A0006F0090917000B5DF81E080936500FF9152
:1001B000EF91BF91AF919F918F917F916F915F91DF
:1001C0004F913F912F910F900FBE0F901F90189558
:1001D0001F920F920FB60F9211242F933F934F93BC
:1001E0005F936F937F938F939F93AF93BF93EF939F
:1001F000FF9380916400811118C080916F009091ED
:100200007000181619064CF480916F0090917000E0
:1002100001979093700080936F0080916F00909190
:10022000700077DF81E080936400FF91EF91BF91D0
:10023000AF919F918F917F916F915F914F913F917E
:100240002F910F900FBE0F901F9018951F920F9235
:100250000FB60F9211242F933F934F935F936F9399
:100260007F938F939F93AF93BF93EF93FF9315BAB1
:100270001BBAE0916600F0E0EE0FFF1FE959FF4F57
:10028000808109DF209166003BB32C5F81E090E024
:1002900002C0880F991F2A95E2F7832B8BBB8091B0
:1002A000660090E0019683709078992324F401977A
:1002B0008C6F9F6F019680936600829B1AC080911D
:1002C00062009091630001969093630080936200B6
:1002D000883C9105A0F01092700010926F00809100
:1002E0006F009091700015DF109263001092620011
:1002F00006C0109263001092620010926500839B0A
:100300001AC0809160009091610001969093610005
:1003100080936000883C9105A0F0109270001092CC
:100320006F0080916F0090917000F3DE1092610079
:100330001092600006C0109261001092600010924E
:100340006400FF91EF91BF91AF919F918F917F9149
:100350006F915F914F913F912F910F900FBE0F9032
:100360001F90189580916F0090917000D2DE81B33C
:10037000837F81BB8FEF84BB80EF8ABB15BA8BBBB9
:1003800085B7836085BF85B78C6085BF8BB7806C70
:100390008BBF8EE085BD8CE083BD89B7806889BF47
:1003A0007894FFCFEE0FFF1F0590F491E02D099494
:0403B000F894FFCFEF
:00000001FF
