S01200004C4142415F315F3230322E737265637F
S113000029C0000038C0000053C0000033C0000005
S113001031C000002FC000002DC000002BC0000024
S113002029C0000027C0000025C0000023C0000034
S113003021C000001FC000001DC000001BC0000044
S113004019C0000017C0000015C0000013C0000054
S113005011C0000011241FBECFE5D4E0DEBFCDBF28
S113006020E0A0E6B0E001C01D92A036B207E1F79F
S11300703CD04AC0C5CF1F920F920FB60F921124E5
S11300808F939F93829B06C0839904C092B380E1AF
S1130090892782BB829B05C0839B03C082B380589F
S11300A082BB9F918F910F900FBE0F901F90189558
S11300B01F920F920FB60F9211248F939F93839BDD
S11300C006C0829904C092B380E2892782BB829BD6
S11300D005C0839B03C082B3805882BB9F918F91DC
S11300E00F900FBE0F901F90189581B3806B81BB4A
S11300F012BA85B7836085BF85B78C6085BF8BB71F
S10F0100806C8BBF7894FECFF894FFCF86
S9030000FC
