S01200004C6162615F335F3230322E737265631D
S113000029C0000038C0000040C0000033C0000018
S113001031C000002FC000002DC000002BC0000024
S113002029C0000027C0000025C0000023C0000034
S113003021C000001FC000001DC000001BC0000044
S113004019C0000017C0000015C0000013C0000054
S113005011C0000011241FBECFE5D4E0DEBFCDBF28
S113006020E0A0E6B0E001C01D92A036B207E1F79F
S113007095D0ABC0C5CF1F920F920FB60F9211242B
S11300800F900FBE0F901F9018951F920F920FB6EE
S11300900F9211240F900FBE0F901F9018952FEF01
S11300A080E090E023BD9BBD8ABD19BC18BCEFEC79
S11300B0F7E03197F1F700C0000001962150811557
S11300C0F1E09F0779F780E090E04FEF50E013BC38
S11300D09A01281B390B3BBD2ABD99BD88BDEFECA5
S11300E0F7E03197F1F700C0000001968115F1E0C7
S11300F09F0769F720E08FEF90E023BD1BBC1ABC7B
S113010099BD88BDEFECF7E03197F1F700C000002E
S113011001972F5F8F3FFFEF9F0779F72FEF80E065
S113012090E023BD1BBC1ABC99BD88BDEFECF7E081
S11301303197F1F700C00000019621508115F1E0DC
S11301409F0779F780E090E04FEF50E013BC9BBD30
S11301508ABD9A01281B390B39BD28BDEFECF7E0A5
S11301603197F1F700C0000001968115F1E09F0777
S113017069F720E08FEF90E023BD9BBD8ABD19BCD9
S113018018BCEFECF7E03197F1F700C000000197DD
S11301902F5F8F3FFFEF9F0779F7089585B58C6632
S11301A085BD8FB5816A8FBD8EB589608EBD85B7DB
S11301B0836085BF85B78C6085BF8BB7806C8BBF30
S11101C0789480EB81BB6BDFFECFF894FFCF09
S9030000FC
