:1000000033C0000041C000003FC000007EC00000BF
:100010003BC0000039C0000037C0000032C1000002
:1000200033C0000031C000002FC000002DC0000010
:100030002BC0000029C0000008C1000025C000003E
:1000400023C0000021C000001FC000001DC0000030
:100050001BC000005100540057005A005D006000B2
:100060006300660069006C0011241FBECFE5D4E078
:10007000DEBFCDBF20E0A0E6B0E001C01D92A437F6
:10008000B207E1F719D12FC3BBCF082E000C990B93
:10009000AA0BBB0B8A30910510F5FC01E65DFF4F02
:1000A00008C38FE585BB089586E085BB08958BE383
:1000B00085BB08958FE285BB089586E685BB0895CC
:1000C0008DE685BB08958DE785BB089587E085BBE8
:1000D00008958FE785BB08958FE685BB089515BA0F
:1000E0000895CF93DF93E4E7F0E0CCE6D0E02AE098
:1000F00030E0B901CBD292938293862F972FEC17E1
:10010000FD07B9F7DF91CF9108951F920F920FB6B7
:100110000F9211242F933F934F935F936F937F938D
:100120008F939F93AF93BF93EF93FF93809166005C
:1001300090916700181619060CF074C015BA1BBA16
:1001400080916600909167008130910591F46091F3
:10015000640070916500072E000C880B990BA7D1E5
:1001600060936000709361008093620090936300DD
:1001700022C0029701F56091640070916500072E1E
:10018000000C880B990B93D120E030E040EA50E45A
:100190001AD220E030EC4FE754E4EED020E030E01B
:1001A0004AE754E410D2609360007093610080933A
:1001B0006200909363006091600070916100809193
:1001C00062009091630040D1CB018BDFE0916A0027
:1001D000F0916B00EE0FFF1FE459FF4F808155DF58
:1001E0004BB320916A0030916B002C5F3F4F81E050
:1001F00090E002C0880F991F2A95E2F7842B8BBBF1
:1002000080916A0090916B00019683709078992399
:1002100024F401978C6F9F6F019690936B008093ED
:100220006A0002C015BA1BBAFF91EF91BF91AF915E
:100230009F918F917F916F915F914F913F912F91FE
:100240000F900FBE0F901F9018951F920F920FB630
:100250000F9211242F938F939F9384B190E09093EA
:1002600065008093640025B1922B90936500809384
:1002700064009F918F912F910F900FBE0F901F9050
:1002800018951F920F920FB60F9211248F939F9380
:100290008091680090916900892B21F080E282BBF7
:1002A000379A03C080E882BB37989F918F910F9057
:1002B0000FBE0F901F90189580EF8ABB8FEF84BB05
:1002C00080EB81BB87B1826487B986B18B6A86B9BE
:1002D00080B7806A80BF85B58D6085BD86E283BDAD
:1002E00089B7806889BF8EB58B608EBD82E190E052
:1002F0009BBD8ABD99BD88BD89B7886089BF789448
:1003000023E030E0829B1AC08DEB9AE00197F1F771
:1003100000C00000809168009091690041E084274E
:100320009093690080936800829B08C08DEB9AE0EF
:100330000197F1F700C000008299F8CF839BE2CFCC
:100340008DEB9AE00197F1F700C000008091660004
:10035000909167000196B90199D1909367008093BD
:100360006600839BCFCF8DEB9AE00197F1F700C039
:1003700000008399F8CFC6CF0CD0EBC0E3D040F09B
:10038000DAD030F021F45F3F19F0CCC0511115C123
:10039000CFC0F0D098F39923C9F35523B1F3951B3F
:1003A000550BBB27AA2762177307840738F09F5F96
:1003B0005F4F220F331F441FAA1FA9F333D00E2E05
:1003C0003AF0E0E830D091505040E695001CCAF772
:1003D00029D0FE2F27D0660F771F881FBB1F261737
:1003E00037074807AB07B0E809F0BB0B802DBF010A
:1003F000FF2793585F4F2AF09E3F510568F092C047
:10040000DCC05F3FECF3983EDCF38695779567950B
:10041000B795F7959F5FC9F7880F911D96958795BA
:1004200097F90895E1E0660F771F881FBB1F6217D9
:1004300073078407BA0720F0621B730B840BBA0B97
:10044000EE1F88F7E095089504D06894B111B5C007
:10045000089598D088F09F5790F0B92F9927B751F9
:10046000A0F0D1F0660F771F881F991F1AF0BA9578
:10047000C9F712C0B13081F09FD0B1E008959CC09F
:10048000672F782F8827B85F39F0B93FCCF386956E
:1004900077956795B395D9F73EF4909580957095CB
:1004A00061957F4F8F4F9F4F0895E89409C097FB48
:1004B0003EF490958095709561957F4F8F4F9F4F3B
:1004C0009923A9F0F92F96E9BB279395F69587957F
:1004D00077956795B795F111F8CFFAF4BB0F11F442
:1004E00060FF1BC06F5F7F4F8F4F9F4F16C08823E9
:1004F00011F096E911C0772321F09EE8872F762F1F
:1005000005C0662371F096E8862F70E060E02AF05F
:100510009A95660F771F881FDAF7880F969587954B
:1005200097F9089597F99F6780E870E060E0089573
:100530009FEF80EC089500240A94161617061806FB
:100540000906089500240A941216130614060506D7
:100550000895092E0394000C11F4882352F0BB0F68
:1005600040F4BF2B11F460FF04C06F5F7F4F8F4FCB
:100570009F4F089557FD9058440F551F59F05F3F06
:1005800071F04795880F97FB991F61F09F3F79F0B5
:1005900087950895121613061406551FF2CF469537
:1005A000F1DF08C0161617061806991FF1CF8695B9
:1005B0007105610508940895E894BB27662777279D
:1005C000CB0197F908950BD0C4CFB5DF28F0BADF7F
:1005D00018F0952309F0A6CFABCF1124EECFCADFD8
:1005E000A0F3959FD1F3950F50E0551F629FF00146
:1005F000729FBB27F00DB11D639FAA27F00DB11D9F
:10060000AA1F649F6627B00DA11D661F829F222727
:10061000B00DA11D621F739FB00DA11D621F839FAE
:10062000A00D611D221F749F3327A00D611D231F84
:10063000849F600D211D822F762F6A2F11249F57D2
:1006400050408AF0E1F088234AF0EE0FFF1FBB1FF5
:10065000661F771F881F91505040A9F79E3F510594
:1006600070F060CFAACF5F3FECF3983EDCF3869545
:1006700077956795B795F795E7959F5FC1F7FE2B3F
:10068000880F911D9695879597F9089597FB072EEA
:1006900016F4009406D077FD08D011D007FC05D0E1
:1006A0003EF4909581959F4F0895709561957F4F89
:1006B0000895EE0FFF1F0590F491E02D0994AA1BF9
:1006C000BB1B51E107C0AA1FBB1FA617B70710F03D
:1006D000A61BB70B881F991F5A95A9F7809590956F
:0A06E000BC01CD010895F894FFCF8E
:00000001FF
